:100000000C942A000C945F010C9486010C94AD01B1
:100010000C943C000C943C000C943C000C943C0070
:100020000C943C000C943C000C94D4010C94FB0107
:100030000C943C000C943C000C943C000C943C0050
:100040000C943C000C943C000C943C000C943C0040
:100050000C943C0011241FBECFE5D8E0DEBFCDBF1D
:1000600020E0A0E6B0E001C01D92AB36B207E1F798
:100070000E9449000C9422020C9400000E9414017A
:10008000089560E00E946E00089561E00E946E0095
:1000900008950E94670081E00E9445002FEF89E6E5
:1000A00098E1215080409040E1F700C0000081E0DD
:1000B0000E9441002FEF89E698E121508040904056
:1000C000E1F700C0000082E00E943E00E4CF8FEF25
:1000D0008ABB87BB84BB82E081BB0895883010F562
:1000E000662319F0613081F095C04BB321E030E018
:1000F000B90102C0660F771F8A95E2F7CB018095A0
:1001000084238BBB80E008954BB321E030E0B9013C
:1001100002C0660F771F8A95E2F7CB01842B8BBB59
:1001200080E0089598EF980F983020F5662319F035
:10013000613089F071C048B3877021E030E0B901C7
:1001400002C0660F771F8A95E2F7CB018095842362
:1001500088BB80E0089548B3877021E030E0B901A2
:1001600002C0660F771F8A95E2F7CB01842B88BB0C
:1001700080E0089590EF980F983020F5662319F0ED
:10018000613089F04BC045B3877021E030E0B901A0
:1001900002C0660F771F8A95E2F7CB018095842312
:1001A00085BB80E0089545B3877021E030E0B90158
:1001B00002C0660F771F8A95E2F7CB01842B85BBBF
:1001C00080E0089598EE980F983050F5662319F066
:1001D000613089F027C042B3877021E030E0B90177
:1001E00002C0660F771F8A95E2F7CB0180958423C2
:1001F00082BB80E0089542B3877021E030E0B9010E
:1002000002C0660F771F8A95E2F7CB01842B82BB71
:1002100080E0089582E0089582E0089582E00895E4
:1002200082E0089582E00895883070F44BB321E0B5
:1002300030E0B90102C0660F771F8A95E2F7CB0163
:1002400084278BBB80E0089598EF980F983078F45E
:100250004BB3877021E030E0B90102C0660F771F11
:100260008A95E2F7CB0184278BBB80E0089590EF5D
:10027000980F983078F44BB3877021E030E0B901E3
:1002800002C0660F771F8A95E2F7CB0184278BBBEC
:1002900080E0089598EE980F983078F44BB387700B
:1002A00021E030E0B90102C0660F771F8A95E2F7BE
:1002B000CB0184278BBB80E0089582E008951F92D4
:1002C0000F920FB60F9211242F933F934F935F938A
:1002D0006F937F938F939F93AF93BF93EF93FF930E
:1002E000E0916200F09163000995FF91EF91BF9159
:1002F000AF919F918F917F916F915F914F913F91BE
:100300002F910F900FBE0F901F9018951F920F9274
:100310000FB60F9211242F933F934F935F936F93D8
:100320007F938F939F93AF93BF93EF93FF93E0914E
:100330006000F09161000995FF91EF91BF91AF913D
:100340009F918F917F916F915F914F913F912F91ED
:100350000F900FBE0F901F9018951F920F920FB61F
:100360000F9211242F933F934F935F936F937F933B
:100370008F939F93AF93BF93EF93FF93E0916400AC
:10038000F09165000995FF91EF91BF91AF919F9119
:100390008F917F916F915F914F913F912F910F902E
:1003A0000FBE0F901F9018951F920F920FB60F92CD
:1003B00011242F933F934F935F936F937F938F936A
:1003C0009F93AF93BF93EF93FF93E0916600F091FB
:1003D00067000995FF91EF91BF91AF919F918F9128
:1003E0007F916F915F914F913F912F910F900FBE31
:1003F0000F901F9018951F920F920FB60F92112415
:100400002F933F934F935F936F937F938F939F931C
:10041000AF93BF93EF93FF93E0916800F091690071
:100420000995FF91EF91BF91AF919F918F917F912E
:100430006F915F914F913F912F910F900FBE0F9051
:080440001F901895F894FFCFFE
:00000001FF
